{
  "contractName": "StoreCustomers",
  "abi": [
    {
      "inputs": [],
      "name": "count",
      "outputs": [
        {
          "internalType": "uint32",
          "name": "",
          "type": "uint32"
        }
      ],
      "stateMutability": "view",
      "type": "function"
    },
    {
      "inputs": [
        {
          "internalType": "uint32",
          "name": "",
          "type": "uint32"
        }
      ],
      "name": "customers",
      "outputs": [
        {
          "internalType": "string",
          "name": "name",
          "type": "string"
        },
        {
          "internalType": "uint8",
          "name": "age",
          "type": "uint8"
        }
      ],
      "stateMutability": "view",
      "type": "function"
    },
    {
      "inputs": [
        {
          "components": [
            {
              "internalType": "string",
              "name": "name",
              "type": "string"
            },
            {
              "internalType": "uint8",
              "name": "age",
              "type": "uint8"
            }
          ],
          "internalType": "struct StoreCustomers.Customer",
          "name": "newCustomer",
          "type": "tuple"
        }
      ],
      "name": "addCustomer",
      "outputs": [],
      "stateMutability": "nonpayable",
      "type": "function"
    },
    {
      "inputs": [
        {
          "internalType": "uint32",
          "name": "id",
          "type": "uint32"
        }
      ],
      "name": "getCustomer",
      "outputs": [
        {
          "components": [
            {
              "internalType": "string",
              "name": "name",
              "type": "string"
            },
            {
              "internalType": "uint8",
              "name": "age",
              "type": "uint8"
            }
          ],
          "internalType": "struct StoreCustomers.Customer",
          "name": "",
          "type": "tuple"
        }
      ],
      "stateMutability": "view",
      "type": "function"
    }
  ],
  "bytecode": "0x6080604052600080546001600160401b031916905534801561002057600080fd5b506106f6806100306000396000f3fe608060405234801561001057600080fd5b506004361061004c5760003560e01c806306661abd1461005157806385ec526d14610083578063cf7a4639146100a3578063d39e50e1146100b8575b600080fd5b60005461006990640100000000900463ffffffff1681565b60405163ffffffff90911681526020015b60405180910390f35b610096610091366004610322565b6100d9565b60405161007a9190610395565b6100b66100b1366004610450565b6101b3565b005b6100cb6100c6366004610322565b610242565b60405161007a929190610521565b60408051808201909152606081526000602082015263ffffffff821660009081526001602052604090819020815180830190925280548290829061011c90610546565b80601f016020809104026020016040519081016040528092919081815260200182805461014890610546565b80156101955780601f1061016a57610100808354040283529160200191610195565b820191906000526020600020905b81548152906001019060200180831161017857829003601f168201915b50505091835250506001919091015460ff1660209091015292915050565b80600160006101c06102e9565b63ffffffff1681526020810191909152604001600020815181906101e490826105cf565b50602091909101516001909101805460ff191660ff90921691909117905560008054640100000000900463ffffffff169060046102208361068f565b91906101000a81548163ffffffff021916908363ffffffff1602179055505050565b60016020526000908152604090208054819061025d90610546565b80601f016020809104026020016040519081016040528092919081815260200182805461028990610546565b80156102d65780601f106102ab576101008083540402835291602001916102d6565b820191906000526020600020905b8154815290600101906020018083116102b957829003601f168201915b5050506001909301549192505060ff1682565b60008054819081906103009063ffffffff1661068f565b91906101000a81548163ffffffff021916908363ffffffff1602179055905090565b60006020828403121561033457600080fd5b813563ffffffff8116811461034857600080fd5b9392505050565b6000815180845260005b8181101561037557602081850181015186830182015201610359565b506000602082860101526020601f19601f83011685010191505092915050565b6020815260008251604060208401526103b1606084018261034f565b905060ff60208501511660408401528091505092915050565b634e487b7160e01b600052604160045260246000fd5b6040805190810167ffffffffffffffff81118282101715610403576104036103ca565b60405290565b604051601f8201601f1916810167ffffffffffffffff81118282101715610432576104326103ca565b604052919050565b803560ff8116811461044b57600080fd5b919050565b6000602080838503121561046357600080fd5b823567ffffffffffffffff8082111561047b57600080fd5b908401906040828703121561048f57600080fd5b6104976103e0565b8235828111156104a657600080fd5b8301601f810188136104b757600080fd5b8035838111156104c9576104c96103ca565b6104db601f8201601f19168701610409565b935080845288868284010111156104f157600080fd5b808683018786013760009084018601525081815261051083850161043a565b848201528094505050505092915050565b604081526000610534604083018561034f565b905060ff831660208301529392505050565b600181811c9082168061055a57607f821691505b60208210810361057a57634e487b7160e01b600052602260045260246000fd5b50919050565b601f8211156105ca57600081815260208120601f850160051c810160208610156105a75750805b601f850160051c820191505b818110156105c6578281556001016105b3565b5050505b505050565b815167ffffffffffffffff8111156105e9576105e96103ca565b6105fd816105f78454610546565b84610580565b602080601f831160018114610632576000841561061a5750858301515b600019600386901b1c1916600185901b1785556105c6565b600085815260208120601f198616915b8281101561066157888601518255948401946001909101908401610642565b508582101561067f5787850151600019600388901b60f8161c191681555b5050505050600190811b01905550565b600063ffffffff8083168181036106b657634e487b7160e01b600052601160045260246000fd5b600101939250505056fea2646970667358221220b66b7a2d74bfa494dd90348489a3e982ee9dab8f2128bf83add2557dbca6162664736f6c63430008110033",
  "immutableReferences": {},
  "source": "// SPDX-License-Identifier: MIT\npragma solidity ^0.8.17;\n\ncontract StoreCustomers {\n    \n    struct Customer {\n        string name;\n        uint8 age;\n    }\n\n    uint32 private nextId = 0;\n    uint32 public count = 0;\n\n    function getNextId() private returns(uint32) {\n        return ++nextId;\n    }\n\n    mapping(uint32 => Customer) public customers;\n\n    function addCustomer(Customer memory newCustomer) public {\n        customers[getNextId()] = newCustomer;\n        count++;\n    }\n\n    function getCustomer(uint32 id) public view returns(Customer memory) {\n        return customers[id];\n    }\n}",
  "sourcePath": "/home/leonaldt/Documents/Projects/crud-solidity/contracts/StoreCustomers.sol",
  "compiler": {
    "name": "solc",
    "version": "0.8.17+commit.8df45f5f.Emscripten.clang"
  },
  "schemaVersion": "3.4.10",
  "updatedAt": "2022-09-21T15:07:01.792Z",
  "devdoc": {
    "kind": "dev",
    "methods": {},
    "version": 1
  },
  "userdoc": {
    "kind": "user",
    "methods": {},
    "version": 1
  }
}